:020000040800F2
:10000000800A0020D90000086D1800086916000851
:1000100000000000000000000000000000000000E0
:10002000000000000000000000000000711800083F
:1000300000000000000000006F180008731800089E
:10004000EB000008EB000008EB000008EB000008E4
:10005000EB000008EB000008EB000008EB000008D4
:1000600000000000EB000008EB000008EB000008B7
:10007000EB000008EB00000800000000EB000008A7
:100080000000000000000000000000000000000070
:100090000519000800000000EB000008EB00000854
:1000A00000000000EB00000800000000000000005D
:1000B000551F00086D160008000000000000000039
:1000C0000448854600F090F8004800473D260008A7
:1000D000C046C046800A00200448804704480047C4
:1000E000FEE7FEE7FEE7FEE7FEE7FEE70119000890
:1000F000C100000830B50B46014600202022012433
:1001000009E00D46D5409D4205D31D469540491B4B
:100110002546954040191546521E002DF1DC30BD94
:10012000F0B51FB40646002082B005464024019178
:1001300000901BE0019922460F46304600F042F83D
:10014000049A059B801A994110D3104619462246FD
:1001500000F028F8361A8F4101972246012000212D
:10016000009F00F01FF838184D4100902046641E93
:100170000028DFDC019B00982946324607B0F0BD1D
:10018000D2B201E00270401C491EFBD2704700222F
:10019000F6E710B513460A4604461946FFF7F0FF86
:1001A000204610BD10B5202A04DB0146203A9140BC
:1001B000002010BD914020239C1A0346E3401943C0
:1001C000904010BD10B5202A04DB0846203AD040EC
:1001D000002110BD0B46D340D0402024A21A9140EC
:1001E0000843194610BD0000064C0125064E05E0E7
:1001F000E36807CC2B430C3C98471034B442F7D348
:10020000FFF762FF94260008B426000838B50446BC
:10021000064805490068FFF76DFF604300E0401E97
:1002200000900028FBD138BD40420F00180000208C
:1002300072B6FEE7F8B506460D464036317C012918
:100240000DD00121317401688A68520709D5416DCA
:10025000202211434165002030740120F8BD0220A6
:10026000F8BD174B6A68D80547109A42154C8A6A40
:100270002B6812D05B035B0B1A438A62296849031F
:1002800005D5A1680143A1600A20FFF7BFFF2868D8
:10029000800312D5A06838430EE05B035B0B9A43E2
:1002A0008A622968490302D5A1688143A160286850
:1002B000800302D5A068B843A06000203074F8BD68
:1002C000011000000027014070B5040006D0606DE9
:1002D000264600254036002802D006E0012070BDE9
:1002E000A5653574204600F0D3F8606DC00603D4D0
:1002F00021688868400705D5606D10210843606556
:100300003574EBE7606DFF22013290430222104307
:10031000606588688207920F5B48012A02D10A68EB
:10032000D2072BD1032362689B079A4205D05B4218
:100330009A4202D05B009A4209D10A69920092085F
:100340000A6121680A6963681A430A610CE00A6954
:10035000920092080A6181680F22920491438160A1
:1003600081686268114381602168CA6818239A43D2
:10037000CA602168CA68A3681A43CA6081680122FA
:100380005206914381608168A28E520611438160BA
:1003900020688168C90004D48168012212071143D2
:1003A00081602068C168394A1140C1602069E168F4
:1003B000022825D000200143204620300278037B0C
:1003C00052035B001A431143226B1143A26992034B
:1003D0001143E269D20311432268D3681943D16003
:1003E000616A0A46FF3AC23A05D0A26A11432268FE
:1003F000D3681943D16042780121012A02D00BE071
:100400000420D8E70078002823D0606D2022104314
:100410006065A06D0843A065E06B012820681FD0CF
:100420000169C90703D001694908490001612068D1
:100430004169C908C900416120684169A26B114343
:100440004161A565606D80088000401C60650020EA
:1004500070BD2068C26801231B041A43C260DBE739
:100460000269FF239B009A43026120680269236CA2
:10047000A66C1A43636C33431A4302612068026915
:100480000A430261D3E70000002701401902FEFF82
:1004900010B586B0044614216846FFF778FE0E4971
:1004A0002068884216D10D48416B421511434163C3
:1004B000C16A01221143C162C06A694610400590B9
:1004C000C02000900320019000200290052000072A
:1004D00000F0B8F806B010BD002401400010024042
:1004E00030B5014620314A790023022A04D0042283
:1004F000C2630B71012030BD026814680E25AC4345
:10050000146002681468640864001460446C1C225F
:10051000144001221546006CA54045604A711846FA
:100520000B7130BD70B50024014620314A79022A92
:1005300003D00421C163012418E0026813680E256A
:10054000AB431360026813685B085B001360436C85
:100550001C221340012215469D40036C5D604A71C8
:1005600000220A71816B002900D08847204670BDA7
:10057000F0B5002258E0012393401C460C4052D0B5
:1005800096082B4DB6007519AF68AC4695072E0F2F
:100590000F25B540AE463D4005273F07B84201D183
:1005A00000270FE0234FB84201D101270AE0224F74
:1005B000B84201D1022705E0204FB84201D10527FA
:1005C00000E00627B740AF4212D11D4D2E68A6436A
:1005D0002E606E68A6436E60AE68A643AE60EE689D
:1005E000A643EE606546AD687446A5436446A560C3
:1005F000056856000324B44025430560D508AD00C6
:100600002D182E6AAC465507EF0E0F25BD40AE43A0
:1006100065462E62C568A543C56045689D43456033
:100620008368A3438360521C0B46D340A3D1F0BD23
:10063000000001400004005000080050001C005061
:1006400000040140F8B5002303240125B8E0324638
:100650002E469E40B446324079D00E79B607B60F8A
:10066000012E01D0022E17D186682746B6465E00BD
:10067000B74000967646BE43B646CF68009EB74068
:1006800076463743876046686746BE430F79FF0664
:10069000FF0F9F40374347600E79F643B6070ED0F1
:1006A000C6682746B4465E00B646B7406646BE43B7
:1006B000B4468F687646B74066463743C7600E79C2
:1006C000B607B60F022E14D1DE08B6003618009613
:1006D000366A5F07B446FE0E0F27B646B740664639
:1006E000BE43B4460F697646B74066463743009E20
:1006F000376206682746B4465E00B646B74066468F
:10070000BE430F79B446BF07BF0F7646B740664673
:10071000374307604E68B603B60F50D02B4F7E6B41
:100720002E437E639F082A4EBF00BE190096B6680E
:100730000F27B4469E07360FB646B7406646BE43FF
:1007400005273F07B446B84202D1002710E036E043
:10075000204FB84201D101270AE01F4FB84201D112
:10076000022705E01D4FB84201D1052700E006270A
:100770007646B74066463743009EB760184E3668E7
:100780004F689643FF0300D51643154F3E607E68C1
:100790004F689643BF0300D51643114F7E60BE6875
:1007A0004F689643FF0200D516430D4FBE60FE68AA
:1007B0004F689643BF0200D51643094AD6605B1CBA
:1007C0000A681646DA4000D041E7F8BD0010024042
:1007D000000001400004005000080050001C0050C0
:1007E00000040140002A01D0816170478162704796
:1007F00001488068704700000C00002002488168B2
:1008000002788918816070470C00002010B50848F4
:1008100000240168402211430160032000F00AF81F
:10082000002801D0012401E000F026F8204610BD88
:100830000020024070B504460D4D7D202978C0008F
:10084000FFF758FC01460B480068FFF753FC00F027
:100850002BFC002809D1042C07D200222146401E7F
:1008600000F032F800206C6070BD012070BD000007
:100870000C000020180000200448416B01221143A5
:100880004163816B02041143816370470010024091
:10089000002809DBC106C90E012088400349086011
:1008A000BFF34F8FBFF36F8F7047000080E100E010
:1008B000002805DBC106C90E0120884001490860F7
:1008C0007047000000E100E010B501F041FC10BDF0
:1008D000F8B50446007800274E4D800671D54D4E80
:1008E000403EB06BC00004D4B06BA9050843B063B0
:1008F000012749480168C90511D4016882151143CF
:100900000160FFF775FF009005E0FFF771FF0099A8
:10091000401A642837D840480068C005F5D53268C9
:100920000321090560680A400140914208D0810313
:10093000890F032904D13168890301D50120F8BD4D
:100940002A69032109040A4022D0084090421FD09E
:10095000207880061CD528692A6988430121C904AA
:100960000A432A612A698A432A612861C0050FD592
:10097000FFF73EFF009008E0FFF73AFF0099411AA9
:100980002648814201D90320F8BD28698005F3D5A6
:1009900061688803800F032805D13268000582430F
:1009A00001400A4332602869032261681204114041
:1009B00008432861002F04D0B16B01200007814358
:1009C000B1632078800705D5E8680C218843A168C9
:1009D0000843E8602078400706D5E86803218902CB
:1009E0008843E1680843E8602078000706D5E86896
:1009F00003210903884321690843E8602078000641
:100A000006D5E86803218904884361690843E860E2
:100A10000020F8BD40100240007000408813000024
:100A2000F8B50E46050038D05E480068C007C00F14
:100A3000B04214D25B4C2068400840003043206034
:100A4000FFF7D6FE074605E0FFF7D2FEC11B56486A
:100A500081427AD82068C007C00FB042F4D128780C
:100A6000524C800705D5E068F0218843A968084307
:100A7000E0602878C00752D06868022806D00328B2
:100A800007D0216801280AD0890504E0216889037C
:100A900001E021688901002903DB0120F8BD490735
:100AA000F9E7E168890889000143E160FFF7A0FEEA
:100AB0000746686802280AD0032814D001281ED0EF
:100AC00029E0FFF795FEC11B374881423DD8E06819
:100AD0000007800F0228F4D121E0FFF789FEC11B37
:100AE0003148814231D8E0680007800F0328F4D1F3
:100AF00015E0FFF77DFEC11B2B48814225D8E06839
:100B00000007800F0128F4D109E0FFF771FEC11B37
:100B10002548814219D8E0680007800FF5D12148A7
:100B20000168C907C90FB14217D9016849084900CE
:100B300031430160FFF75CFE074608E005E0FFF780
:100B400057FEC11B1848814201D90320F8BD154842
:100B50000068C007C00FB042F1D12878400706D521
:100B6000E068072109028843E9680843E0602878C3
:100B7000000707D5E0680721C90288432969C90031
:100B80000843E06000F03AF8E168094A0906090FF5
:100B9000515CC8400749086007480068FFF74AFEF3
:100BA000F8BD000000200240881300000010024041
:100BB00064260008180000201000002004480549A1
:100BC0000068C968044A4905490F515CC84070472C
:100BD00018000020001002407D2600080448054946
:100BE0000068C968044A8904490F515CC8407047CD
:100BF00018000020001002407D26000870B51A4A37
:100C0000D3681A490C2018408D0004280CD04E00DF
:100C1000082810D00C2810D050680004410F012083
:100C2000C003491C884070BD1068C00601D5084645
:100C300070BD284670BD304670BD98020C4C000F48
:100C4000205C1B029C0FD368641CDB0301D531467A
:100C500003E01268D20600D4294601F053FA224676
:100C60000023FFF75DFA70BD0010024000093D004F
:100C700074260008FEB505007ED0F74CE7680C200E
:100C8000E66807400120000406402878C00747D0E6
:100C9000082F05D00C2F0AD101200004864206D16E
:100CA000206880033CD568680028E5D038E0012042
:100CB00069680004814203D121680143216011E089
:100CC000052301221B0492049942216802D1114399
:100CD0002160F1E781432160216801400091206893
:100CE00090432060686800280DD0FFF781FD0090D8
:100CF00005E0FFF77DFD0099401A64287ED8206842
:100D00008003F6D50CE0FFF773FD009005E0FFF7D8
:100D10006FFD0099401A6428F0D820688003F6D44B
:100D2000287880075DD5E868810604D522682021EF
:100D30000A43226088430923042F0DD00C2F01D1D0
:100D4000002E09D000283CD021689943014321603E
:100D5000FFF74EFD064628E02168490701D5002827
:100D60008AD061681F22120291432A69120211433C
:100D700061602168994300E091E101432160FFF740
:100D80003DFFE16809060A0FB449895CC840B449CF
:100D90000860B4480068FFF74DFD002874D120E0DA
:100DA000FFF726FD801B0228A8D820684007F7D54A
:100DB00060681F21090288432969090208436060AD
:100DC0000FE02068400840002060FFF711FD064654
:100DD00004E0FFF70DFD801B02288FD82068400734
:100DE000F7D42878C00661D5002F0DD0A869002857
:100DF0004BD02068FF210131084300E0C6E02060AD
:100E0000FFF7F6FC06462DE02068800502D5A869AC
:100E10000028A5D06068072149038843296A084350
:100E200060606068297F0002000A0906084360606C
:100E3000286A410B0120C003491C8840E16809066B
:100E40000A0F8649895CC840854908608548006862
:100E5000FFF7F0FC002817D128E0FFF7C9FC801B42
:100E60000228A1D820688005F7D5606807214903CA
:100E70008843296A084360606068297F0002000A8D
:100E800009060843606011E0E1E02168FF200130BD
:100E900081432160FFF7ACFC064604E0FFF7A8FCA5
:100EA000801B022872D820688005F7D428786E4EFF
:100EB000000724D568690028306910D00121084353
:100EC0003061FFF795FC009005E0FFF791FC009979
:100ED000401A02285AD830698007F6D50FE040083A
:100EE00040003061FFF784FC009005E0FFF780FCD4
:100EF0000099401A022849D830698007F6D428782A
:100F0000400765D500200290A06BC00006D4A06BFE
:100F1000012109070843A06301200290534801689A
:100F2000C90511D40168821511430160FFF760FC07
:100F3000009005E0FFF75CFC0099401A642825D872
:100F40004A480068C005F5D5FF20AA6801308242F2
:100F500003D131690143316111E001218902002A85
:100F600007D005231B029A4203D132690A4332613A
:100F7000EFE7326982433261306988433061A868A3
:100F800000280FD0FFF734FC009007E05EE0FFF789
:100F90002FFC0099411A3648814257D830698005A4
:100FA000F5D50DE0FFF724FC009006E0FFF720FCEC
:100FB0000099411A2E48814248D830698005F5D4FD
:100FC0000298002804D0A06B012109078843A06380
:100FD000686A002865D00C2F4CD0012636060228FE
:100FE000206805D0B0432060FFF702FC05462FE0E3
:100FF000B0432060FFF7FCFB074604E0FFF7F8FB77
:10100000C01B022822D820688001F7D4E96AA86AA8
:10101000E2680843296BFD231B049A4311430843EC
:10102000E060206830432060FFF7E2FB054604E003
:10103000FFF7DEFB401B022808D820688001F7D5A7
:101040002FE0FFF7D5FB401B022801D90320FEBD8E
:1010500020688001F5D424E00010024064260008D6
:1010600018000020100000204010024000700040D6
:10107000881300000128EAD0E06801210904AA6A67
:10108000014091420BD10F218904EA6A014091424B
:1010900005D1032189050840296B884201D0012030
:1010A000FEBD0020FEBD0000094910B5401E88426B
:1010B00001D9012010BD074C60610321081F01F018
:1010C00047F80020A06107202061002010BD00002B
:1010D000FFFFFF0000E000E0F0B502462032137E83
:1010E000012B1ED0012515760223537606687468FD
:1010F000B3687027BC430F68274377600068AC076C
:10110000A04205D0084CA04202D0084CA04204D115
:1011100080244968A34319438160557600201076E6
:10112000F0BD0220F0BD00000008014000140140A5
:1011300070B5050005D02C462034607E002802D012
:1011400006E0012070BD00202076284600F010F84F
:1011500002206076291D286800F018FC0120A07785
:10116000A076E076207760776076002070BD000082
:1011700010B50068084988420CD10848416B042228
:1011800011434163002211461420FFF79DFB1420F8
:10119000FFF78EFB10BD0000000801400010024068
:1011A000F8B5054604462035287E0026012817D0CC
:1011B0000120287602206876226890687727FF232E
:1011C000B8431B02984390600868502838D00EDC62
:1011D00020284FD006DC00284CD010281ED149E032
:1011E0000220F8BD302845D0402817D13AE06028C9
:1011F0002ED0702819D001221203801A0FD09042ED
:101200000CD1CB684A688968206800F0EBFB206845
:101210008168012292031143816000E001260120D0
:101220006876002028763046F8BDCB684A68896821
:10123000206800F0D7FB2168886838438860EEE7B3
:10124000CA684968206800F0E0FB5021206806E089
:10125000CA684968206800F0E9FB6021206800F056
:10126000CCFBDCE7CA684968206800F0CEFB40216F
:101270002068F4E7226801461046F0E7704770479F
:1012800070470000F8B502680446D0691168966896
:10129000A24B05461D402023002D75D0F707A04D19
:1012A000FF0FBC460D402F436DD02546C707803544
:1012B000002F06D0CF0504D5012717622A683A43CC
:1012C0002A60820708D5F20706D0276802223A6210
:1012D0002A6804273A432A60420708D5F20706D055
:1012E0002668042232622A68022632432A600207F4
:1012F0000AD50A461A406646324305D026680822B7
:1013000032622E6816432E60020508D54A0106D5C2
:1013100001222668D20232622A681A432A602A68A9
:10132000002A39D0800606D5880604D5616E0029CA
:1013300001D020468847286821688968490602D478
:10134000282108422DD0204600F07CFC21688868C6
:10135000400622D5EFF31080012282F310888B68BB
:10136000402293438B6080F31088206F002814D0B4
:101370006C498163206FFFF7D5F800280CD0206FEF
:10138000816B08E000E012E0850610D58D060ED5D1
:10139000616EA9E020468847F8BD2046FFF770FF40
:1013A000F8BD2046FFF76CFF00202860F8BD256ED1
:1013B000012D7CD1C5067AD5CD0678D510261662CA
:1013C00022689068254640064035002846DA216F9D
:1013D000086840680004000CE8D02F8B8742E5D9EC
:1013E000688308680068800633D4EFF31080012119
:1013F00081F3108811683701B943116080F31088B8
:10140000EFF31080012181F3108821688A68520867
:1014100052008A6080F31088EFF31080012181F37D
:10142000108821688A684027BA438A6080F3108850
:10143000E36700202066EFF31080012181F310881C
:1014400021680A68B2430A6080F31088206FFFF7B2
:1014500047F8288B698B401A81B231E0288B698B61
:10146000401A81B2688B0028A0D000299ED0EFF3EB
:101470001080012585F310881568FF272137BD43AB
:10148000156080F31088EFF31080012282F310883A
:10149000226895686D086D00956080F31088E36799
:1014A000002020666066EFF31080012200E00BE070
:1014B00082F3108822681368B343136080F31088A6
:1014C0002046FFF7DBFEF8BDC50208D5750206D53C
:1014D0000120000510622046FFF7D1FEF8BD050689
:1014E00006D50D0604D5A16E002900D052E7F8BD3F
:1014F0004006FCD54806FAD52046EFF310810124BA
:1015000084F3108814684025AC43146081F310887C
:1015100083670021816600F0A6F8F8BD0F0800007F
:1015200020010004311C000810B5040003D0A06F96
:10153000002802D007E0012010BD002174200155D1
:10154000204600F026F82420A0672068016849089A
:1015500049000160204600F0A5FB0128ECD0606A3C
:10156000002802D0204600F0CBFA2068416809220A
:10157000D20291434160206881682A2291438160B0
:1015800020680168012211430160204600F01EFB23
:1015900010BD7047FFB50446806F83B017460D46F7
:1015A00020285ED1002D0AD0002F08D0A168C001EC
:1015B000814207D12069002804D1E80702D0012028
:1015C00007B0F0BD204660300090007D012848D073
:1015D0000098012101750020802108512120A06779
:1015E000FFF706F9264640360190378277820120C0
:1015F000A1680003814202D12069002805D02F464E
:10160000002500990020087511E00027F9E7002265
:101610008021204600F034FC002815D1002F15D081
:101620002168387888627F1C708A401E7082708AB8
:10163000019B002806980090E9D100224021204615
:1016400000F01EFC002808D00320B9E72888216894
:10165000C005C00D8862AD1CE6E72020A067002011
:10166000AEE70220ACE77047FEE7000010B50D487A
:101670000068C069C04380060FD40B48426A0C481A
:101680000A4B01785A54491CCAB2027001214170B8
:1016900000214160802A00D301700248FFF7F2FD6B
:1016A00010BD00003405002000480040B4000020B8
:1016B000000000201CB500211E4800911C4A019129
:1016C00002600322C1639207426081600522826347
:1016D000012202610246C16020321170FF23517065
:1016E000C2334362816211730163816104224163E9
:1016F0004261C161FEF7E8FD002801D0FEF798FDC8
:101700000D4800908001019069460A48FEF792FD5D
:10171000002801D0FEF78CFD084800906946054876
:10172000FEF788FD002801D0FEF782FD1CBD0000F9
:101730000024014058000020400000188000001CD8
:10174000F0B587B014216846FEF721FD2948C26A2A
:1017500004210A43C262C26A0A400592C16A012595
:101760002943C162C16A29400591C16A02263143F9
:10177000C162C06A0022304005900520E9030007DD
:10178000FFF730F8002208211B48FFF72BF8012251
:1017900010211948FFF726F800241027052001948E
:1017A0006946000700970294FEF74CFF00966946D1
:1017B000114802960194FEF745FFE8036A46039438
:1017C00061C2052069460007FEF73CFF0820009033
:1017D00002946946019503940748FEF733FF01958B
:1017E00069460548009702950394FEF72BFF07B062
:1017F000F0BD0000001002400004005010B586B09B
:10180000002400941748019402940394049414490A
:10181000059401600F218460416013490461C16037
:1018200080214161FFF784FC002801D0FEF700FD14
:1018300001200003009069460A48FFF7B1FC002828
:1018400001D0FEF7F5FC049404A906480594FFF7BF
:1018500043FC002801D0FEF7EBFC06B010BD0000F1
:10186000000801403C0600200F270000FEE77047FB
:10187000704710B5FEF7C2FF10BD000030B599B03B
:1018800034216846FEF783FC14210DA8FEF77FFC87
:10189000182112A8FEF77BFC184801680322D20227
:1018A0009143C21489180160022000900024102086
:1018B00009940125049003956846FFF7DBF9002899
:1018C00001D072B6FEE70F200D900F941094002106
:1018D0000E9511940DA8FFF7A3F8002801D072B659
:1018E000FEE7062012901494159412A8FEF7F0FF5C
:1018F000002801D072B6FEE719B030BD007000407C
:101900007047000070B5134800680169C943C907F2
:101910001FD1891E0161104C6088401C81B20F48A4
:101920006180814215D9012020700DA000F0DAFB02
:10193000144D012208212846FEF754FF022112A06F
:1019400000F0D2F8002208212846FEF74BFF0020C5
:10195000608070BD3C0600201C000020B80B000019
:10196000656E746572206E6F746966792C20675F8E
:1019700068617264776172655F74696D65733D2536
:10198000640D0A00000400504154000070B5026864
:1019900001239B07114C124D984203D0A04201D065
:1019A000A84203D17026B2434E683243984203D016
:1019B000A04201D0A84204D103231B029A43CB6862
:1019C0001A4380239A430B691A4302608A68C262F1
:1019D000096881620121416170BD00000008014079
:1019E0000014014030B58468FF252D021B0213430B
:1019F000AC430B432343836030BD826870239A431A
:101A00000A4307210A438260704730B5036A046ABB
:101A10006408640004628469F025AC431201224327
:101A20000A24A3430B438261036230BD30B5036ACD
:101A30001024A34303628469036A0F252D03120354
:101A4000AC432243A024A3430901194382610162EC
:101A500030BD000070B5224C86B020492160606026
:101A60000020A060E0602061A0610C2060611D4842
:101A7000C36A01221343C362C36A13400593836B95
:101A800095042B4383630868104308600814009092
:101A90000220052601900625360703906946049525
:101AA00002923046FEF7CEFD0120400300906946C9
:101AB00004953046FEF7C6FD1D20FEF7F9FE012213
:101AC00011461D20FEF700FF2046FFF72DFD206880
:101AD000016820221143016006B070BD004800403B
:101AE00034050020001002400A4610B57D2301464F
:101AF000DB000248FFF74EFD10BD0000B8050020D6
:101B000010B5818CC90707D001684A6801235B04BE
:101B10009A43836A1A434A60818C890707D5016812
:101B20004A6801231B049A43C36A1A434A60818CA2
:101B3000490707D501684A6801239B049A43036B50
:101B40001A434A60818C090707D501684A68012356
:101B5000DB039A43436B1A434A60818CC90607D55D
:101B60000268916801231B039943836B19439160B9
:101B7000818C890607D501688A6801235B039A4333
:101B8000C36B1A438A60818C490612D503685A6870
:101B900001210905046C8A4322435A60026C8A427F
:101BA00007D10268516803235B059943436C1943CD
:101BB0005160818C090607D501684A680123DB045E
:101BC000806C9A4302434A6010BD0000F8B5044699
:101BD000002680300660FEF70BFE05462068006890
:101BE000124F000709D501212B4600224905204646
:101BF000009700F045F900280DD1206800684007E3
:101C00000BD501212B46002289052046009700F0C4
:101C100037F9002801D00320F8BD2020A067E06735
:101C20002666603426750020F8BD0000FFFFFF0126
:101C300010B5806A0022014640314A834A82FFF78C
:101C40001FFB10BD10B5EFF31081012282F3108845
:101C500002681368FF242134A343136081F31088C2
:101C6000EFF31081012282F31088026893685B0809
:101C70005B00936081F31088016E01290BD1EFF3B3
:101C80001081012282F31088026813681024A34394
:101C9000136081F310882021C1670021016641662D
:101CA00010BD0000F8B50446016880682369E66944
:101CB000184363690025334318436A4A0B686A4E28
:101CC000334003430B602068416803231B0399439F
:101CD000E368194341602168A069914201D0236AF9
:101CE00018438B680B263602B34303438B605F496E
:101CF00023685F488B420AD1C0680C21084027D076
:101D0000042829D0082825D00C2811D10EE09342B0
:101D10000ED1C16803208002014019D00120800249
:101D2000091A19D0091A15D0814201D1082700E0FB
:101D300010274F494F4840398600934232D1002F37
:101D40000CD0022F0DD0042F10D0082F7FD126E009
:101D50000027EEE70227ECE70427EAE7FEF72EFF6D
:101D600006E00968C90605D4304603E0FEF746FFE1
:101D7000002872D0626851005118814267D811035F
:101D8000814264D3010E06025008002330185941E5
:101D9000FEF7C6F903210902411A374A55E001202E
:101DA000C003E7E70122E369D20393422BD13B0052
:101DB00000F0C0F90906090C4D114D4D4D274D009D
:101DC000FEF7FCFE09E0FEF709FF06E00968C90618
:101DD00005D4304603E0FEF711FF00283DD06168CE
:101DE00040004A088018FEF785F980B20146234A70
:101DF000103991422BD8511C01400007400F084375
:101E000029E01046EBE73B0000F094F90906090CC5
:101E10002112212121232100FEF7D0FE0AE0FEF746
:101E2000DDFE07E00968C90606D4304604E00EE08E
:101E3000FEF7E4FE002810D061684A081018FEF78B
:101E400059F980B201460D4A1039914203D9012552
:101E500003E01046F0E72168C86000206066A066D5
:101E60002846F8BD00480040F369FFEF00440040F9
:101E70004010024000093D00FFFC0F00EFFF000092
:101E8000FFB581B005461746044660350A9E55E009
:101E9000701C53D0FEF7ACFC0499401AB04230D805
:101EA000002E2ED020680168490747D5C069C0437D
:101EB000000543D401202168C0020862EFF31080BE
:101EC000012181F3108821680B68FF22A13293431E
:101ED0000B6080F31088EFF31080012181F31088EC
:101EE00021688A68520852008A6080F31088202096
:101EF000A067E0678034206000202875032005B0CB
:101F0000F0BDEFF31080012181F3108821680B6888
:101F1000FF22A13293430B6080F31088EFF310800F
:101F2000012181F3108821688A68520852008A6072
:101F300080F310882020A067E067DDE72068C16992
:101F40000298884304D00020B842A1D00020D6E7F0
:101F50000120F9E710B50C480068C069C04380064D
:101F60000ED40A48426A0B49094B48881A54401C4F
:101F700080B2012292024880904201D30020488022
:101F80000148FFF77FF910BDB8050020004400406C
:101F90003401002000000020F3B54E4D07462868AC
:101FA00087B001682022914301604B4CE06A4008F1
:101FB0004000E062A06B1603B043A063286801688C
:101FC000490849000160A06AB043A062A06AB0431A
:101FD000A0621C20FEF75CFC0020A860E86028617D
:101FE000A8613E490C20686182C5E06A0127384338
:101FF000E062E06A38400590E06A02252843E0622A
:10200000E06A28400590A06B3043A063086838431D
:10201000086005260898324C3607012802D00228AD
:1020200021D043E040212046FEF7A2FA802120463D
:10203000FEF79EFA012149023046FEF799FA012186
:1020400089023046FEF794FA04246846B0C0694617
:10205000304603950494FEF7F5FA0820009069468F
:102060000494304620E004213046FEF781FA08212E
:102070003046FEF77DFA012149023046FEF778FA34
:10208000012189023046FEF773FA40206946A1C15A
:1020900003950025694620460495FEF7D3FA802073
:1020A0000090694604952046FEF7CCFA1C20FEF706
:1020B000FFFB002201211C20FEF706FC0548FFF76C
:1020C00033FA04480068016820221143016009B016
:1020D000F0BD0000B80500200010024000440040A0
:1020E000000400500FB410B503A9044B044A029831
:1020F00000F060F810BC08BC04B01847292600089E
:1021000008000020F8B5040C8BB2264682B25E436C
:102110000D0C1046370C58433604801900217941C4
:1021200016466E43370C36048019794126466E43B5
:102130008919F8BD30B47446641E2578641CAB421E
:1021400000D21D46635D5B00E31830BC18470000F9
:102150008307FF22DB0E9A408907090E9940002869
:1021600008DB830809489B001B1818689043084344
:10217000186070470007000F0838830804489B0068
:102180001B18D86990430843D861704700E400E009
:1021900000ED00E002E008C8121F08C1002AFAD1D1
:1021A00070477047002001E001C1121F002AFBD1D7
:1021B00070470000FFB591B00F460546002606E0C7
:1021C00025280AD0149A139990476D1C761C2878FC
:1021D0000028F5D1304615B0F0BD0024009401214F
:1021E000F34A029400E004436D1C2B780846203B20
:1021F00098401042F7D128782A280ED00222287859
:1022000001463039092915D800990A235943303934
:10221000401814436D1C0090F1E701CF0090002896
:1022200005DA012040030443009840420090022058
:1022300004436D1C28782E2815D1042004436878A7
:102240006D1C2A280AD101CF6D1C02900BE0029967
:102250000A225143303940186D1C029028780146FB
:1022600030390929F3D928786C2810D006DC4C289D
:102270001AD068280ED06A2817D104E0742813D029
:102280007A2812D110E00120400504430CE001211E
:10229000090501E0032109050C436978814203D156
:1022A0000120000524186D1C6D1C28786E281ED096
:1022B0000CDC632831D004DC00288BD0582811D1E5
:1022C000B2E064287BD069280CD178E073282DD047
:1022D00004DC6F2870D0702804D1A7E075286CD07A
:1022E00078286BD0149A13999047761C62E06002AC
:1022F000400F022807D003280AD0042838680AD0E3
:1023000006603F1D56E03868F11706604160F8E747
:1023100038680680F5E70670F3E738786946087490
:102320000020487404A80390012003E0386803905B
:102330000020C0433F1D61070FD5002101E0019936
:10234000491C029A0191914213DA8142F7DB019A0A
:102350000399895C0029F2D10BE0002101E0019989
:10236000491C01918142FADB019A0399895C002999
:10237000F5D101990098139A401A00902146149BB8
:1023800000F03CF901998019461807E00398039979
:102390000078491C0391149A139990470198401EA4
:1023A0000190401CF2D12146149B139A009800F032
:1023B00015F986196D1C0AE741E033E034E00A2084
:1023C0000021049005916002410F022905D001CF40
:1023D000C2179446032905D007E0FF1DFF08FF0040
:1023E00003CF06E000B2C2179446042902D140B2DE
:1023F000C1178C4600226146944506DA0A46002140
:10240000404291418C462D2102E0210504D52B212B
:102410006A461176012103E0E10701D02021F7E7A8
:10242000019155E00A200BE0102009E010200490F3
:1024300000210420044308200591029003E00820B5
:102440000021059104906002410F022905D001CFBF
:1024500000229446032906D006E0FF1DFF08FF0076
:1024600003CF8C4603E080B2042900D1C0B2002122
:10247000019121072CD529780391702906D0049A5F
:102480001021059B4A401A4305D00EE040216A46C0
:102490001176012108E06146014306D030216A46E9
:1024A00011760399517602210191049A0821059B26
:1024B0004A401A430CD16146014301D1610707D557
:1024C00030216A461176012101910299491E02913B
:1024D0002978582904D037A103910FA90F910DE055
:1024E00039A1F9E76146059B049AFDF719FE039BA4
:1024F0008C469B5C0F9A521E0F92137061460143EB
:10250000F0D10F9807A9081A20300390600704D56E
:10251000012000048443029801E001200290039905
:10252000884201DD401A00E0002041180290019825
:1025300009180098401A0090E00306D42146149B25
:10254000139A009800F05AF886190020049008E0C9
:1025500006A9085C149A139990470498401C761CAD
:10256000049001998842F3DBE0030CD52146149BCB
:10257000139A009800F042F8861904E0149A30206B
:1025800013999047761C0299481E02900029F5DCA9
:1025900008E00F980F990078491C0F91149A13992D
:1025A0009047761C0399481E03900029F1DCFAE657
:1025B0000928010030313233343536373839616219
:1025C00063646566000000003031323334353637DD
:1025D000383941424344454600000000F8B50446FE
:1025E00000251E461746880404D405E039462020FD
:1025F000B0476D1C641EF9D52846F8BDFFB50446EA
:10260000002581B01E46C80301D5302700E02027F1
:10261000880404D505E038460399B0476D1C641E54
:10262000F9D5284605B0F0BD0349CA695206FCD564
:10263000C2B28A627047000000480040FEF7E6F828
:10264000FFF71CF9FFF77CF8FFF734F8FFF7D6F82F
:10265000E12464022046FFF7FDF901212046FFF73F
:102660009BFCFEE7000000000000000001020304E4
:1026700006070809030406080C10182030000000A3
:10268000000102030400000022353730303B3537AB
:1026900030312200B426000800000020580000005D
:1026A000942100080C27000858000020280A000088
:1026B000A42100080000000000000000000000004D
:1026C00001000000040000000000000000002000E5
:1026D00000000000100E0000E70C00008826000833
:1026E0004416000045160000000000000000000035
:1026F00000000000000000000000000000000000DA
:0C270000000000000000000000000000CD
:04000005080000C12E
:00000001FF
