:020000040800F2
:1000000000200020112700085D0700085F07000896
:1000100000000000000000000000000000000000E0
:100020000000000000000000000000006107000860
:1000300000000000000000006307000865070008DA
:100040006127000861270008612700086127000870
:100050006127000861270008612700086127000860
:1000600000000000612700086127000861270008E0
:1000700061270008612700080000000061270008D0
:100080000000000000000000000000000000000070
:1000900061270008000000006127000861270008B0
:1000A00000000000612700080000000000000000C0
:1000B000DD0A0008850A00080000000000000000BA
:1000C00010B5064C2378002B07D1054B002B02D02E
:1000D000044800E000BF0123237010BD3C04002051
:1000E0000000000054290008044B10B5002B03D079
:1000F0000349044800E000BF10BDC04600000000F6
:100100004004002054290008002243088B4274D385
:1001100003098B425FD3030A8B4244D3030B8B4208
:1001200028D3030C8B420DD3FF22090212BA030C11
:100130008B4202D31212090265D0030B8B4219D3F2
:1001400000E0090AC30B8B4201D3CB03C01A524112
:10015000830B8B4201D38B03C01A5241430B8B425A
:1001600001D34B03C01A5241030B8B4201D30B0343
:10017000C01A5241C30A8B4201D3CB02C01A52416A
:10018000830A8B4201D38B02C01A5241430A8B422D
:1001900001D34B02C01A5241030A8B4201D30B0216
:1001A000C01A5241CDD2C3098B4201D3CB01C01A30
:1001B000524183098B4201D38B01C01A524143093A
:1001C0008B4201D34B01C01A524103098B4201D328
:1001D0000B01C01A5241C3088B4201D3CB00C01A95
:1001E000524183088B4201D38B00C01A524143080D
:1001F0008B4201D34B00C01A5241411A00D2014632
:10020000524110467047FFE701B5002000F006F8A4
:1002100002BDC0460029F7D076E770477047C04658
:10022000002B11D1002A0FD1002900D1002802D0C3
:100230000021C943080007B4024802A140180290F7
:1002400003BDC046D9FFFFFF03B4684601B502985D
:1002500000F034F8019B9E4602B00CBC7047C046CB
:10026000F0B5CE46474680B5070099463B0C9C4604
:1002700013041B0C1D000E0061460004140C000C3E
:1002800045434B4360436143C0182C0C20188C46F7
:10029000834203D980235B029846C444494679438C
:1002A0007243030C63442D042D0CC918000440193B
:1002B0008918C0BCB946B046F0BDC046F0B5574637
:1002C0004E464546DE46E0B504000D00924699468E
:1002D00083B08B4230D82DD04946504600F0BAF852
:1002E00029000600200000F0B5F8331A9846203B9C
:1002F0009B4633D45A465346934042461F005346CA
:1003000093401E00AF423AD8AF4200D178E05B463E
:10031000A41BBD41002B00DA75E0002200230092EF
:10032000019301235A46934001930123424693408F
:10033000009328E08242CFD900220023009201934B
:100340000C9B002B01D01C605D600098019903B0EC
:10035000F0BCBB46B246A946A046F0BD42462023AB
:100360009B1A5246DA40414613004A468A4017001B
:1003700042461F43534693401E00AF42C4D9002259
:100380000023009201934346002BD9D0FB0772084B
:100390001A4346467B080EE0AB4201D1A2420CD87C
:1003A000A41A9D41012024196D410021013E241809
:1003B0004D41002E06D0AB42EED9013E24196D41CD
:1003C000002EF8D1009801995B4600196941002B75
:1003D00024DB2B005A464446D3402A00E2401C004E
:1003E0005B461500002B2ADB26009E4033002600CA
:1003F0004746BE403200801A9941009001919FE724
:10040000A342BCD883E74246202300219B1A002246
:10041000009101920122DA40019286E742462023B0
:100420009B1A2A0046469A402300F3404446134351
:100430002A00E2401C005B461500002BD4DA42463D
:100440002F002023260097409B1ADE403B003343B9
:10045000CDE7C04610B5002903D100F007F82030E1
:1004600002E0080000F002F810BDC0461C21012384
:100470001B04984201D3000C10391B0A984201D387
:10048000000A08391B09984201D30009043902A265
:10049000105C40187047C0460403020201010101CC
:1004A000000000000000000000B583B00822002119
:1004B000684602F079F92048204B03600023C363AB
:1004C000C02212064260836005228263043A026100
:1004D000C3601F328354013283548362C222FF32CD
:1004E0004262963AFF3A8354283A42610363836139
:1004F0004363C36100F07AFB002814D1104B0093D2
:1005000080235B01019369460B4800F065FC0028DD
:100510000CD10C4B00936946074800F05DFC0028A5
:1005200007D103B000BD00F0A9F8E7E700F0A6F896
:10053000EFE700F0A3F8F4E758040020002401409E
:10054000400000188000001C10B586B00400142282
:10055000002101A802F028F922680E4B9A4201D02E
:1005600006B010BD0C4B596B802292000A435A63AF
:10057000D96A01221143D962DB6A1A400092009BBA
:10058000C0230193BD3B0293A02001A9C00500F048
:1005900035FDE5E70024014000100240F0B5D646E5
:1005A0004F464646C0B588B01422002103A802F089
:1005B000FBF8304BD96A04221143D962D96A0A4048
:1005C0000092009ADA6A01252A43DA62DA6A2A403E
:1005D0000192019ADA6A02273A43DA62DB6A3B4007
:1005E0000293029B80231B029A46A023DB059846B8
:1005F00000225146180000F03BFE1F4E0022082149
:10060000300000F035FE01221021300000F030FEF5
:1006100010239946039300240494059403A94046AB
:1006200000F0ECFC03970494059703A9300000F058
:10063000E5FC5346039304950597069403A94046A9
:1006400000F0DCFC0823039304950594069403A9A9
:10065000300000F0D3FC4B460393049505950694B7
:1006600003A9300000F0CAFC08B0E0BCBA46B146AD
:10067000A846F0BD001002400004005072B6FEE72C
:1006800000B599B0342200210BA802F08DF8142295
:10069000002106A802F088F818220021684602F01E
:1006A00083F81A490B681A4A1A4080231B01134326
:1006B0000B6002230B93013B0E930F330F93002328
:1006C00014930BA800F032FE002819D10F230693D3
:1006D0000E3B07930023089309930A93002106A871
:1006E00001F0B2F800280DD10623009300230293F5
:1006F0000393684601F0BAF9002805D119B000BD8E
:10070000FFF7BCFFFFF7BAFFFFF7B8FF007000402C
:10071000FFE7FFFF10B500F02BFAFFF7B1FFFFF77F
:100720003DFFFFF7C1FE00F023F8E1246402200042
:1007300000F0A0F80121200000F0EAF8FEE7000038
:10074000054B5A6B01210A435A63996B802252056B
:100750000A439A637047C04600100240FEE7FEE776
:100760007047704710B500F017FA10BD70470000D1
:1007700000B587B01022002102A802F015F8082267
:100780000021684602F010F81648174B03600F234B
:10079000436000238360154AC26003618033436174
:1007A00001F0A0FA002813D180235B01029302A973
:1007B0000C4801F0BBFA00280DD1002300930193EF
:1007C0006946084801F036FB002807D107B000BD94
:1007D000FFF754FFE8E7FFF751FFEEE7FFF74EFFA3
:1007E000F4E7C046B4040020000801400F270000D1
:1007F00010B586B004001422002101A801F0D4FF36
:1008000023688022D205934204D0184A93421FD015
:1008100006B010BD164B996B012211439963D96A3A
:100820001143D962DB6A13400093009B01920223BB
:1008300002930593A02001A9C00500F0DFFB002270
:1008400000210F2000F026FB0F2000F053FBDFE714
:10085000074A536B04210B435363002200211420E9
:1008600000F018FB142000F045FBD1E70008014020
:100870000010024070B586B0224C234921606060B0
:100880000023A360E3602361A3610C3363611F4B0A
:10089000D86A01221043D862D86A104000900098AC
:1008A0009D6B8020C002284398630B6813430B6044
:1008B0008023DB0101930223029303920493062613
:1008C0000596A025ED0501A9280000F097FB8023DF
:1008D0009B010193059601A9280000F08FFB1D20C4
:1008E00000F008FB012201211D2000F0D3FA2000B6
:1008F00001F0D6FE2268136820210B43136006B076
:1009000070BDC046F40400200048004000100240C2
:10091000F0B5C64600B588B080460F00544D2A6831
:10092000136820218B431360524CE36A0126B343C2
:10093000E362A36B504A1340A36329680B68B34377
:100940000B60A36A1340A362A36A1340A3621C2036
:1009500000F0DCFA494A2A6043466B600023AB6032
:10096000EB602B61AB610C336B61E36A3343E36291
:10097000E36A33400193019BE16A02231943E16278
:10098000E16A0B400293029BA16B80239B020B4305
:10099000A36313681E431660012F16D0022F3DD0AB
:1009A0001C2000F0A7FA002201211C2000F072FA9E
:1009B0002F4C200001F074FE2268136820210B43A5
:1009C000136008B080BCB846F0BD2D4C402120001B
:1009D00000F0D4FB8021200000F0D0FB8021A02477
:1009E000E4058900200000F0C9FB8021C900200037
:1009F00000F0C4FB04250395022304930122059211
:100A00000693079503A9200000F0F8FA0823039342
:100A1000079503A9200000F0F1FAC1E7A024E4053E
:100A20000421200000F0AAFB0821200000F0A6FB12
:100A300080218900200000F0A1FB8021C900200056
:100A400000F09CFB402303933E3B0493012205925C
:100A50000693002507950A4C03A9200000F0CEFA62
:100A600080230393079503A9200000F0C7FA97E7B6
:100A70007805002000100240FFFFFDFF0044004009
:100A80000004005010B50F4B1B68DB699B0611D5A5
:100A90000D4B586A0D4A13780D49C8540133DBB227
:100AA00013700C4A012111700B4A002111605BB2D6
:100AB000002B03DB034801F041FA10BD034B002279
:100AC0001A70F7E7F404002000480040800A002074
:100AD000000A0020880A0020840A002010B50C4B70
:100AE0001B68DB699B060FD50A4B586A0A4A1388B4
:100AF0000A49C85401339BB213808022D20093422A
:100B000002D3054B00221A80014801F017FA10BDEC
:100B10007805002000440040FC090020FC0500206E
:100B200010B504000F4B1978FA208000FFF7ECFA9B
:100B300001000D4B1868FFF7E7FA00F0F7F90028FD
:100B40000DD1032C01D901200AE00130002221003F
:100B5000404200F09FF9054B1C60002000E001209E
:100B600010BDC04604000020000000200800002046
:100B700010B5084A136840210B4313600320FFF7A8
:100B8000CFFF041E02D00124200010BDFFF7D8FDC6
:100B9000FAE7C04600200240034A1168034B1B7865
:100BA0005B1813607047C0468C0A002004000020C8
:100BB000014B18687047C0468C0A002010B582B0FF
:100BC0000400084B18680849FFF79EFA4443019453
:100BD00002E0019B013B0193019B002BF9D102B084
:100BE00010BDC0460000002040420F0070B5041E3A
:100BF00000D1E2E0436D002B30D0636DDB0633D4CF
:100C000022689168042005000D4008422CD1616DD6
:100C10006B4B19400633FF3319436165916801330B
:100C20000B40012B29D06368C02109068B4228D0D4
:100C30008021C9058B4224D0802109068B4220D017
:100C400013699B009B0813615E4B1A685E490A405A
:100C50001A601A6861680A431A601BE083655022B3
:100C60008354FFF771FCC8E7636D1022134363657B
:100C700050230022E254012070BD1368DB0713D417
:100C8000D1E713699B009B081361226813696168AF
:100C90000B4313612268D36818218B43D360226809
:100CA000D368A1680B43D360464A136847490B4099
:100CB00013601368616B49060B43136023689A68DD
:100CC000D20004D49968802252050A439A602368AE
:100CD000DA683F490A40DA602068C268E36821693F
:100CE00002292DD02B432021615C49030B432C2189
:100CF000615C49000B43216B0B43A16989030B43E2
:100D0000E169C9030B431343C360636AC222FF3224
:100D1000934205D02168CA68A06A03431343CB609D
:100D20002123E35C012B0DD0E36B012B1ED0236844
:100D30001A69D2072DD51A6901218A431A6128E060
:100D40000425CFE71F33E35C002B06D12268D1686E
:100D500080235B020B43D360E6E7636D20221343DD
:100D60006365A36D1F3A1343A365DDE7226813692A
:100D700018490B40136121680A69236C606C0343B6
:100D8000A06C034313430B612268136901210B43D9
:100D900013612268536907218B43536122685369A9
:100DA000A16B0B4353610023A365636D032293433F
:100DB000023A1343636500205EE701205CE7C0460A
:100DC000FDFEFFFF08270140FFFFC3FFFFFFFFFD00
:100DD0001902FEFF03FCFFFF70B504000D00502355
:100DE000C35C012B4BD050230122C25403689A6884
:100DF00052071AD4234A4968914229D0996A2A682D
:100E00005203520B0A439A622B685B0316D42B6879
:100E10009B0305D51C4A11688023DB030B43136039
:100E200050230022E254002070BD436D2022134362
:100E3000436550230022C2540120F5E7124A11688D
:100E400080231B040B4313600A20FFF7B7FEDEE785
:100E5000996A2A685203520B914399622B685B038B
:100E600004D5094A136809490B4013602B689B039A
:100E7000D6D5054A136806490B401360D0E7022017
:100E8000D2E7C0460110000008270140FFFF7FFFA6
:100E9000FFFFBFFF70B5002811DB8308134EC0337E
:100EA0009B009D5903242040C000FF221400844071
:100EB000A54389010A4082402A439A5170BD0F23FD
:100EC0000340083B9B0806339B00094A9446634451
:100ED0005C6803221040C000FC3215008540AC4322
:100EE00089010A40824022435A60E7E700E100E0BE
:100EF00000ED00E0002805DB1F2318401E3B834067
:100F0000014A13607047C04600E100E000280ADB98
:100F10001F2318401E3B8340034980228B50BFF3A0
:100F20004F8FBFF36F8F704700E100E001388023DF
:100F30005B0498420FD2094A50600948036A1B02B9
:100F40001B0AC02109060B43036200239360073389
:100F50001360002070470120FCE7C04610E000E06D
:100F600000ED00E010B52523C35C022B06D004235E
:100F7000C36320330022C254012010BD02681368ED
:100F80000E218B43136001680A6801239A430A60AB
:100F90001C22416C0A40016C1C0094404C602522CC
:100FA000835423330022C2540020E6E710B52523E2
:100FB000C35C022B03D00423C363012010BD02686D
:100FC00013680E218B43136001680A6801239A435A
:100FD0000A601C22416C0A40016C1C0094404C6069
:100FE0002522835423330022C254836B002B02D06A
:100FF00098470020E2E70020E0E70000F0B500237A
:1010000057E084685F000326BE40B4432600CC68E6
:10101000BC4034438460446894434A681609012202
:1010200032409A402243426053E0DC080834A40076
:10103000265805321A4092000F279740BE430F6989
:1010400097403A003243225057E0052600E0002640
:10105000A64034003C4302329200424E9451424A30
:101060001468EA432600AE434F68FF0301D52C43C2
:1010700026003D4C26606468260016404F68BF037A
:1010800001D52C432600384C6660A4682600164023
:101090004F68FF0201D52C432600334CA660E4685C
:1010A00022404E68B60201D52A0022432E4CE2604F
:1010B00001330C682200DA4053D001229A40250007
:1010C00015401442F4D003244E683440013C012CF6
:1010D00097D903224C682240032A09D0C2685E00D7
:1010E0000324B440A24314008A68B2402243C26081
:1010F00003224C682240022A97D004685E00032233
:101100001700B740BC434F683A40B24022430260E8
:10111000C02292024C681442CAD0144C626B012661
:10112000324362639A08941CA4000E4EA75903240C
:101130001C40A4000F26A640B743A026F605B042E7
:1011400085D00B4EB04208D00A4EB04207D00A4EAE
:10115000B04200D179E706267AE7012678E7022631
:1011600076E7F0BD0000014000040140001002409D
:101170000004005000080050001C0050F0B5CE469E
:10118000474680B58946002323E00521884601E0D3
:10119000002188464146A140A94246D004685E002D
:1011A0000325B5402C430460DC080834A40027580C
:1011B00007261E40B6000F21B1408F432750C46858
:1011C000AC43C4604468944344608268AA4382602C
:1011D00001334A46DA403DD001229A404C46144041
:1011E000A44649461142F3D09F08BC1CA4001B4DE5
:1011F000655903261E40B4000F26A6403540A021A5
:10120000C9058842C4D01649884208D01549884289
:1012100008D015498842B8D006218846BAE701218E
:101220008846B7E702218846B4E7104C2568614636
:101230008D43256065688D436560A5688D43A56015
:10124000E5688D43E56005490237BC006558B54344
:101250006550A3E7C0BCB946B046F0BD00000140F0
:101260000004005000080050001C00500004014021
:10127000002A01D0816170478162FCE710B5264BDE
:10128000DA680C231340082B42D00C2B11D0042B0E
:1012900009D0214B5A68520B072313400133802099
:1012A0000002984010BD1C4B1B68DB0632D51B4862
:1012B000F8E7910C0F230B401949C85C920D0323EA
:1012C0001A40541C144BDB68DB0309D5154A002374
:1012D0000021FEF7C5FF22000023FEF7A1FFE1E792
:1012E0000D4B1B68DB0609D50C4A00230021FEF7D5
:1012F000B7FF22000023FEF793FFD3E70A4A00233B
:101300000021FEF7ADFF22000023FEF789FFC9E7A9
:101310000448C7E70448C5E70010024000093D0043
:101320008429000800127A000024F400F0B583B08C
:10133000041E00D165E2C54BDA680C251540DE6855
:1013400080235B021E400368DB0736D5082D2CD0B6
:101350000C2D28D0636880225202934255D0A022DF
:10136000D202934258D0B94B1A68B9490A401A6060
:101370001A68802149020A400192019A1A68B54907
:101380000A401A606368002B52D0FFF711FC070077
:10139000AE4B1B689B0310D4FFF70AFCC01B6428EC
:1013A000F6D903202EE2002ED4D0A84B1B689B0355
:1013B00003D56368002B00D126E223689B076DD517
:1013C000E3689A0605D5A148026820210A43026015
:1013D0008B43042D3CD00C2D38D0002B00D1B0E035
:1013E0009A490A680920824313430B60FFF7E0FB28
:1013F0000600964B1B685B0700D599E0FFF7D8FB0A
:10140000801B0228F5D90320FCE1904A1168802353
:101410005B020B431360B5E78C4B19688022D20244
:101420000A431A601968802252020A431A60A9E727
:10143000FFF7BEFB0700854B1B689B03BDD5FFF77D
:10144000B7FBC01B6428F6D90320DBE1002EC4D112
:101450007E4A1268520702D5002B00D1D6E17B4E9E
:1014600072687D490A40216909020A437260326844
:1014700009218A4313433360FFF700FFF268120922
:101480000F231340754AD35CD840754B1860754BD9
:101490001868FFF745FB002800D0B3E12368DB069E
:1014A0002DD5002D60D1694B1B689B0503D5A36921
:1014B000002B00D1ACE1654A53686B490B40216AAF
:1014C0000B43536053681B021B0AE16909060B4377
:1014D0005360236A590B013180231B028B40D16872
:1014E00009090F220A405D498A5CD3405C4A1360B7
:1014F0005C4B1868FFF714FB002800D082E12368DA
:101500001B077DD56369002B67D0504A136D0121FD
:101510000B431365FFF74CFB06004C4B1B6D9B0701
:101520006ED4FFF745FB801B0228F6D9032069E142
:1015300046494B68484A13402269120213434B60E4
:10154000ACE7424A136801218B431360FFF730FB7D
:1015500006003E4B1B685B07A0D5FFF729FB801BED
:101560000228F6D903204DE1A369002B22D0374A87
:10157000116880235B000B431360FFF719FB060023
:10158000324B1B689B0506D4FFF712FB801B022819
:10159000F6D9032036E12D4A536833490B40216ABE
:1015A0000B43536053681B021B0AE16909060B4396
:1015B0005360A4E7254A13682C490B401360FFF7DA
:1015C000F7FA0600214B1B689B0598D5FFF7F0FA48
:1015D000801B0228F6D9032014E11C4A136D012157
:1015E0008B431365FFF7E4FA0600184B1B6D9B074E
:1015F00006D5FFF7DDFA801B0228F6D9032001E1AA
:1016000023685B0700D48EE0104B9B6BDB001BD480
:101610000E4A916B80235B050B4393630126144BA9
:101620001B68DB0528D5A36880225200934237D07F
:10163000002B4DD1054B1A6D0C490A401A651A6DE5
:101640000C490A401A6531E00026E8E70010024024
:10165000FFFFFEFFFFFFFBFFFFE0FFFF6C2900081D
:101660000000002008000020FF1FFFFFFFFEFFFF1B
:1016700000700040FFFBFFFF6B4A116880235B0096
:101680000B431360FFF794FA0700674B1B68DB05F9
:10169000C9D4FFF78DFAC01B6428F6D90320B1E046
:1016A000624A116D80235B000B431365A368002B16
:1016B00028D0FFF77DFA07005C4B1B6D9B0530D4EB
:1016C000FFF776FAC01B5A4B9842F5D9032099E0F0
:1016D000A022D200934209D0544B1A6D55490A40BA
:1016E0001A651A6D54490A401A65DFE74F4B196DA8
:1016F000013AFF3A0A431A65196D802252000A43E3
:101700001A65D3E7FFF754FA0700484B1B6D9B059A
:1017100007D5FFF74DFAC01B454B9842F5D903207A
:1017200070E0012E1AD0636A002B00D172E00C2DFC
:101730004FD0022B18D03D4A136840490B4013602C
:10174000FFF736FA0400394B1B689B013FD5FFF7C2
:101750002FFA001B0228F6D9032053E0334A936B7B
:1017600037490B409363DEE7304A136833490B4037
:101770001360FFF71DFA05002C4B1B689B0106D573
:10178000FFF716FA401B0228F6D903203AE0274952
:10179000CB682C4A1340A26AE06A0243206B0243E2
:1017A0001343CB600A6880235B0413430B60FFF78D
:1017B000FFF904001D4B1B689B0106D4FFF7F8F9E5
:1017C000001B0228F6D903201CE000201AE00020AC
:1017D00018E0012B20D0154BDA6880235B02134000
:1017E000A16A8B421AD1F0239B031340E16A8B421A
:1017F00016D1C0231B041A40236B9A4212D1002039
:1018000000E0012003B0F0BD0120FBE70120F9E773
:101810000120F7E70020F5E70120F3E70120F1E7D9
:101820000120EFE70120EDE70070004000100240CA
:1018300088130000FFFEFFFFFFFBFFFFFFFFFFFE1F
:10184000FFFFFFEFFFFF02FF70B505000C0000284F
:1018500000D1D1E06A4B1A68012313408B4219D39F
:101860002B689B0706D5674AD368F0218B43A9688C
:101870000B43D3602B68DB077BD56B68022B20D032
:10188000032B40D0012B44D05E4A126892051DD430
:10189000012099E05A4A136801218B4323431360C6
:1018A000FFF786F90600564B1A6801231340A3423E
:1018B000D6D0FFF77DF9801B534A9042F3D903201D
:1018C00082E0504A1268920300D497E04D49CA68FA
:1018D000032082431343CB60FFF76AF906006B686D
:1018E000022B1CD0032B28D0012B34D0454BDB68B6
:1018F0000C221A423DD0FFF75BF9801B424B984205
:10190000F4D9032060E03F4A12689201DED401203E
:101910005AE03C4A12685207D8D4012054E0394BAF
:10192000DA680C231340082B23D0FFF741F9801B02
:10193000354A9042F3D9032046E0324BDA680C2353
:1019400013400C2B15D0FFF733F9801B2E4B984218
:10195000F3D9032038E02B4BDA680C231340042B17
:1019600007D0FFF725F9801B274B9842F3D90320B6
:101970002AE0234B1A6801231340A34225D82B6881
:101980005B0706D51F4AD36820490B40E9680B4323
:10199000D3602B681B0707D51A49CB681C4A134034
:1019A0002A69D2001343CB60FFF768FC154BDA6855
:1019B00012090F231340174AD35CD840164B186006
:1019C000164B1868FFF7ACF870BD0D4A136801217B
:1019D0008B4323431360FFF7EBF80600084B1A68AC
:1019E00001231340A342CAD0FFF7E2F8801B064B45
:1019F0009842F3D90320E7E70120E5E70120E3E778
:101A0000002002400010024088130000FFF8FFFF92
:101A1000FFC7FFFF6C29000800000020080000201D
:101A2000014B18687047C0460000002010B5FFF752
:101A3000F7FF044BDA68120A07231340024AD35C0B
:101A4000D84010BD001002407C29000810B5FFF7F7
:101A5000E7FF044BDA68D20A07231340024AD35C3B
:101A6000D84010BD001002407C29000870B5040069
:101A700003689B064ED55C4B9B6BDB0000D573E087
:101A8000594A916B80235B050B4393630125574BA8
:101A90001B68DB056AD5544B1968C0239B031940AA
:101AA000626813408B4206D0C0239B02110019408C
:101AB000994200D16FE04C4B196DC0239B02080086
:101AC0001840194215D01A40824212D023689B0652
:101AD0000FD5454B186D464A02401E6D8021090303
:101AE00031431965196D434E314019651A65C305B7
:101AF00058D46368C022920219001140914260D00C
:101B000039490B6DC02292026068024013430B6595
:101B1000012D60D023689B0706D5334AD36C0C2176
:101B20008B43A1680B43D36423685B0706D52E4A19
:101B3000D36C31490B40E1680B43D36423681B0726
:101B400006D5294AD36C2D490B4021690B43D36438
:101B500023681B0645D5244AD36C29490B4061698B
:101B60000B43D364002070BD002590E71F4A116825
:101B700080235B000B431360FFF71AF806001B4B32
:101B80001B68DB0500D586E7FFF712F8801B642889
:101B9000F5D90320E7E7144B1B689B0300D48AE7C1
:101BA0000120E0E7FFF704F806000F4B1B6D9B05D3
:101BB0009FD4FEF7FDFF801B124B9842F5D90320FE
:101BC000D1E709490A6810480240C0208003034059
:101BD00013430B6094E70A008B6B0C490B40936333
:101BE00098E70020BFE7C0460010024000700040A8
:101BF000FFFFFCFFFFFFF7FFFFF3FFFFFFCFFFFF3C
:101C0000FFFFF3FF88130000FFFFCFFFFFFFFFEF91
:101C100003688022D205904205D0124A904202D039
:101C2000114A904203D1702293434A6813438022A1
:101C3000D205904205D00B4A904202D00A4A904207
:101C400003D10A4A1340CA681343802293430A69A6
:101C5000134303608B68C3620B6883620123436193
:101C60007047C0460008014000140140FFFCFFFF20
:101C700030B5036A046A0125AC4304628469EF3518
:101C8000AC43120122430A24A3430B438261036243
:101C900030BD000030B5036A1024A3430362846999
:101CA000036A054D2C4012032243A024A3430901DB
:101CB00019438261016230BDFF0FFFFF836870220C
:101CC00093430B4307210B438360704730B584680F
:101CD000034D2C401B0213430B432343836030BD51
:101CE000FF00FFFF70B5041E1ED03923C35C002B1C
:101CF00014D0392502236355210001C9FFF788FF5D
:101D000001233E22A354043AA3540132A3540132C6
:101D1000A3540132A3546355002070BD3833002210
:101D2000C254FEF765FDE4E70120F6E710B50400B4
:101D30003823C35C012B00D178E038230122C25440
:101D400001330132C25402689368394803409360FA
:101D50000B68602B50D02AD8402B58D00CD9502B70
:101D600023D1CA6849682068FFF782FF50212068A4
:101D7000FFF7A4FF002005E0202B0ED009D9302B5F
:101D80000BD0012039230122E254013B0022E2540E
:101D900010BD002B01D0102B05D119002068FFF7D2
:101DA0008DFF0020EEE70120ECE70120EAE780222A
:101DB0005201934236D08022920193420DD1CB68DA
:101DC0004A6889682068FFF781FF2268916880234C
:101DD000DB010B4393600020D4E7702B24D1CB6848
:101DE0004A6889682068FFF771FF22689368772145
:101DF0000B4393600020C5E7CA6849682068FFF775
:101E000049FF60212068FFF759FF0020BAE7CA6840
:101E100049682068FFF72CFF40212068FFF74EFF3C
:101E20000020AFE70020ADE70120ABE70220AFE7DD
:101E30008800FFFF30B53823C35C012B25D0382341
:101E40000122C25401330132C25403685A689C68AB
:101E50007025AA430D682A435A6003688022D20580
:101E6000934205D00A4A934202D00A4A934204D1CF
:101E7000802294434A6814439C6039230122C2544F
:101E8000013B0022C254002030BD0220FCE7C046C6
:101E9000000801400014014010B5EFF3108C01223E
:101EA00082F3108801680B68124C23400B608CF39E
:101EB0001088EFF3108C82F3108801688B689343CD
:101EC0008B608CF31088036E012B05D02023C36731
:101ED00000230366436610BDEFF3108183F310887F
:101EE000026813683234FF34A343136081F310880F
:101EF000ECE7C046DFFEFFFF7047704710B5EFF319
:101F00001081012383F31088026813684024A343DF
:101F1000136081F310882023836700238366FFF713
:101F2000ECFF10BD704710B5806A00235A2283521F
:101F3000083A8352FFF7F6FF10BD704770B50400F2
:101F40000268D36910689568AB491E000E400B42C9
:101F500003D1990601D581061DD4002E07D0012199
:101F60000E002E4029421CD1A449084219D1216EED
:101F7000012900D198E0D90202D5690200D528E1F3
:101F80001A0602D5020600D52AE15B0602D54306F1
:101F900000D52CE170BD636E002BFBD0200098476C
:101FA000F8E7D90707D5C10505D5012515628021B8
:101FB00062582A4362509A0709D5002E07D022683A
:101FC000022111627E31625804252A4362505A0769
:101FD00009D5002E07D02268042111627C31625895
:101FE00002252A4362501A070AD5820601D4002E20
:101FF00006D0226808251562802162582A43625063
:102000001A050AD5420108D522688021090111620A
:102010008021625820252A4362508022A258002A3B
:10202000B8D09B0606D5830604D5636E002B01D07D
:10203000200098478023E25823689B685B0602D4FF
:102040002823134229D02000FFF726FF23689B682E
:102050005B061ED5EFF31081012383F310882268FD
:10206000936840208343936081F31088236F002B93
:102070000BD0634A9A63206FFEF798FF002800D1C7
:1020800088E7206F836B984784E72000FFF74AFFBB
:1020900080E72000FFF746FF7CE72000FFF742FFC4
:1020A00080230022E25075E7D90600D463E7C10619
:1020B00000D460E71023136223689B685B0650D549
:1020C000226F13685B689BB2002B00D162E7582136
:1020D000615A994200D85DE75A21635213681B6820
:1020E0009B0609D55823E15A0233E35AC91A89B22B
:1020F0002000FFF722FF4DE7EFF31080012383F369
:10210000108821680A683F4D2A400A6080F31088D1
:10211000EFF3108083F3108821688A689A438A60FD
:1021200080F31088EFF3108083F3108821688A68A9
:102130004235FF35AA438A6080F310882022E26787
:1021400000222266EFF3108183F31088226813685F
:1021500010208343136081F31088206FFEF702FF85
:10216000C0E75823E15A0233E25A891A89B2E35A86
:102170009BB2002B00D10DE7002900D10AE7EFF355
:102180001085012383F31088206802681E4E3240B8
:10219000026085F31088EFF3108583F310882068C0
:1021A00082689A43826085F310882022E2670022C9
:1021B00022666266EFF3108083F31088226813684A
:1021C0001025AB43136080F310882000FFF7B5FEA5
:1021D000E0E680235B031362200000F097FAD9E663
:1021E000A36E002B00D1D5E620009847D2E6200050
:1021F000FFF784FECEE6C0460F0800002001000471
:10220000271F0008FFFEFFFFDFFEFFFFD0B5040021
:10221000016883680269134342691343C269134327
:102220000A688748024013430B6022685368854957
:102230000B40E1680B435360A1692268824B9A42CC
:1022400001D0236A19439368804803400B4393608D
:1022500022687F4B9A4212D07B4B9A4220D01023A7
:1022600079498A4242D0E0698022120290427AD0B3
:10227000082B00D9DEE09B00764AD3589F46764B68
:10228000D96C0C230B40082B22D005D8002B21D071
:10229000042BE5D01023E3E70C2B1DD1043BDFE733
:1022A0006D4BDB6CC02109010B40802109018B4281
:1022B00014D007D8002B13D08021C9008B4211D134
:1022C0000423CDE7C02109018B420DD10823C7E7C4
:1022D0000223C5E70023C3E71023C1E70223BFE7BA
:1022E0000023BDE71023BBE71023B9E7042B35D04B
:1022F0000BD8002B2CD0022B05D1574B1B68DB06CB
:102300002FD4564805E0012073E0082B1ED1802011
:102310000002626853009B18834200D97EE01303D9
:10232000834200D27CE0070E06025008002180198B
:1023300079410023FDF774FF494BC218494B9A427B
:1023400000D96FE02368D860002052E0012050E0FF
:10235000FFF76CFB0028DCD100204AE0FEF78EFF7F
:10236000F8E74148D5E7082B5ED89B003F4AD35891
:102370009F46FFF75BFB002858D0400063685B086E
:10238000C0186168FDF7C0FE83B20004000C0100B4
:102390001039374A91424BD80F2293431A00400814
:1023A0000723184010432368D860002021E0FFF77E
:1023B0004DFBE0E7284B1B68DB0604D42748DCE72D
:1023C000FEF75CFFD7E72848D7E7FFF72FFB002889
:1023D00032D063685B0818186168FDF795FE000449
:1023E000000C0200103A224B9A4227D82368D8608A
:1023F000002000236366A366D0BDFFF727FBE6E756
:10240000154B1B68DB0607D41448E2E7FEF736FFDE
:10241000DDE780200002DCE71348DAE70120E8E787
:102420000120E6E70120E4E70120E2E70020E0E701
:102430000120DEE70120DCE70020DAE70120D8E711
:10244000F369FFEFFFCFFFFF00480040FFF4FFFFFD
:102450000044004090290008001002400024F400CD
:1024600000FDFFFFFFFC0F0000093D00B42900083C
:10247000EFFF0000436ADB0706D5026853682C496A
:102480000B40816A0B435360436A9B0706D5026881
:10249000536828490B40C16A0B435360436A5B078A
:1024A00006D50268536824490B40016B0B43536007
:1024B000436A1B0706D50268536820490B40416BED
:1024C0000B435360436ADB0606D5026893681C49D8
:1024D0000B40816B0B439360436A9B0606D50268F1
:1024E000936818490B40C16B0B439360436A5B06CA
:1024F0000BD50268536814490B40016C0B435360C1
:1025000080235B03026C9A420AD0436A1B0606D5FD
:10251000026853680D490B40816C0B435360704750
:10252000026853680A490B40416C0B435360ECE767
:10253000FFFFFDFFFFFFFEFFFFFFFBFFFF7FFFFF32
:10254000FFEFFFFFFFDFFFFFFFFFEFFFFFFFF7FFE3
:10255000FFFF9FFFF8B5CE46474680B506000D0049
:1025600017009946089B98463368DC692C40641B29
:1025700063425C41BC4253D143460133F4D0FEF781
:1025800017FB4B46C01A40452CD84346002B29D098
:1025900033681A685207E7D5DA691205E4D5802254
:1025A00012011A62EFF31080012282F31088316861
:1025B0000B681E4C23400B6080F31088EFF31080F3
:1025C00082F3108831688B6893438B6080F31088A6
:1025D0002023B367F3677F32B35054330022F254A1
:1025E00003201EE0EFF31080012282F3108831688F
:1025F0000B680E4C23400B6080F31088EFF31080C3
:1026000082F3108831688B6893438B6080F3108865
:102610002023B367F36754330022F254032000E011
:102620000020C0BCB946B046F8BDC0465FFEFFFF03
:1026300030B583B0040080230022C250FEF7B8FA00
:1026400005002268126813070DD423681B685B0716
:1026500016D42023A367E367002323667422A354C0
:10266000002003B030BD80210C4B009303000022FA
:1026700089032000FFF76EFF0028E6D00320F0E773
:102680008021064B00932B000022C9032000FFF796
:1026900061FF0028DDD00320E3E7C046FFFFFF0114
:1026A00010B5041E2ED0836F002B21D02423A367E6
:1026B0002268136801218B4313602000FFF7A6FDF9
:1026C000012814D0636A002B18D1226853680E4980
:1026D0000B405360226893682A218B4393602268E1
:1026E000136829390B4313602000FFF7A1FF10BDC9
:1026F00074330022C254FFF7FFFBD7E72000FFF737
:10270000B9FEE2E70120F2E7FFB7FFFF70470000E4
:102710000D4885460D480E490E4A002302E0D45864
:10272000C4500433C4188C42F9D30B4A0B4C002319
:1027300001E013600432A242FBD3FEF717F800F069
:1027400011F8FDF7E7FFFEE7002000200000002061
:102750003C040020F02900083C040020940A0020DA
:10276000FEE7000070B50C4D0C4E761BB61005D080
:10277000002408CD01349847A642FAD100F0EAF8C7
:10278000074D084E761BB61005D0002408CD013445
:102790009847A642FAD170BDE4290008E429000850
:1027A000E4290008EC290008F0B50500830749D0AA
:1027B000541E002A45D003000326CAB202E00135A8
:1027C000013C3ED301332A703342F8D1032C30D977
:1027D000FF220A40150215432A0415430F2C34D951
:1027E0002700103F3F093E01B4461E001A00103674
:1027F0006644156055609560D5601032B242F8D1DC
:1028000001373F01DB190F270C22274022403C00F3
:10281000002A0ED03E1FB608B400A4461A001C1DA4
:10282000644420C2A242FCD103240136B6009B19A5
:102830003C40002C05D0C9B21C19197001339C42D0
:10284000FBD1F0BD03001400C0E72700E2E7C0465B
:10285000034B10B5002B02D0024800F005F810BD64
:10286000000000007928000810B5010000230022B4
:10287000002000F019F810BD70B5074D074C641B1F
:10288000A41005D0013CA300EB589847002CF9D1C7
:1028900000F066F870BDC046EC290008F029000879
:1028A0007047C0467047C046F0B5D6464F464646CC
:1028B000C0B5264F82B006003868924698468946D1
:1028C000FFF7EEFF224B1B680193A423019A5B00E4
:1028D000D558002D2ED06C681F2C30DC002E0FD167
:1028E000631C6B604B460234A40038686351FFF7E9
:1028F000D9FF002002B0E0BCBA46B146A846F0BD00
:10290000882251462800A300EB189950873AA2402C
:102910008930FF300168114301608421404649003D
:102920005850022EDCD12B008D33FF3319680A4337
:102930001A60D5E715004D35FF35D550CBE738681F
:10294000FFF7B0FF01204042D4E7C0463804002022
:10295000D8290008F8B5C046F8BC08BC9E467047A8
:0C296000F8B5C046F8BC08BC9E467047A5
:10296C000000000000000000010203040607080933
:10297C000000000001020304030406080C101820D8
:10298C0030000000CA230008FA23000800240008C5
:10299C00342400080C2400083424000834240008D3
:1029AC00342400081224000872230008AE23000807
:1029BC00B423000828240008C02300082824000899
:1029CC0028240008282400087A230008100000207E
:0829DC00E0D8FF7F01000000BC
:0829E40051280008E900000879
:0429EC00C10000081E
:1029F00000002000010000000400000000000000B2
:102A000000000000FC02002064030020CC03002032
:102A100000000000000000000000000000000000B6
:102A200000000000000000000000000000000000A6
:102A30000000000000000000000000000000000096
:102A40000000000000000000000000000000000086
:102A50000000000000000000000000000000000076
:102A60000000000000000000000000000000000066
:102A70000000000000000000000000000000000056
:102A80000000000000000000000000000000000046
:102A90000000000000000000000000000000000036
:102AA0000000000000000000010000000000000025
:102AB0000E33CDAB34126DE6ECDE05000B000000EA
:102AC0000000000000000000000000000000000006
:102AD00000000000000000000000000000000000F6
:102AE00000000000000000000000000000000000E6
:102AF00000000000000000000000000000000000D6
:0C2E20000000000000000000900A0020EC
:0400000508002711B7
:00000001FF
